:0400000080312F28F4
:100008007E14803120007F08E6008B1A0B1D102813
:100018008F319F2780312A288B190B1C182886318D
:10002800DA2680310B102A282100141C22282000EF
:10003800141C22288031512080312A282100941C48
:100048002A282000941C2A288731FF2720006608C8
:10005800FF007E10090080313128673084000030AD
:10006800850009308F3199278031A0308400003015
:1000780085001E308F319927803121008F318B27E1
:100088008031BE008F318C278031BF008F318D27A2
:10009800C0007E1020008731E22F200014102400B9
:1000A8009D1F94299D132000E7016808023E8600E1
:1000B80087010108860087018101810AE80108009B
:1000C8002100A21808002108F20072082000E800A8
:1000D80021002108860087010108F2007208A900A2
:1000E800210886008701413F2000E9000430F20022
:1000F80072082100A1072108BE3A031D8728BA30DB
:10010800F2007208A1002210210820060319A21487
:1001180024001E140230F20072082000E7000800D4
:1001280024009E140230F20072082000E700080044
:1001380024001E1FA8280130F20072082100A4071D
:1001480004308731A127080020006F08F3006E08EB
:10015800F200F336F20C72082400990020006E1C9D
:10016800BA280B30F2007208E70008000330F200EA
:100178007208E700080024001E1FCB280130F20097
:1001880072082100A40704308731A12708009E14B3
:1001980020006F08F3006E08F2007308F200F30104
:1001A80006307205F40000307305F500F030740471
:1001B800EE0000307504EF006E142100A501A50AB9
:1001C8000230F20072082000E70008002100250331
:1001D800031903292000690886008701403FEE00C3
:1001E800413FEF00690886008701433F2100A700CF
:1001F8002000690886008701423F2100A6002000F0
:100208006E082400990020006E1C0F290530F200AA
:100218007208E70008000330F2007208E7000800DF
:1002280024001E1F22290130F20072082100A407B1
:1002380024001E1305308731A12708000130210052
:10024800A602260A031D3E290530F2007208200086
:10025800E90701302100A902031D36290030873142
:10026800A127080024009E140230F2007208200022
:10027800E7000800210027088600870101082400FC
:1002880099000130F20072082100A7070800240035
:100298001E1F59290130F20072082100A4070430FA
:1002A8008731A12724001E1308009E150830F2008C
:1002B80072082000E70008000830F2007208E70022
:1002C80024009E15080024001908F20021002708C0
:1002D80086008701720881000130F2007208A707C2
:1002E8000130A6020319802924009E120630F2006C
:1002F80072082000E700842924009E168731CE2743
:1003080024001E16080000308731A127080001309C
:10031800F20072082100A40706308731A1270800DF
:100328002000670884000C30040203188B298731E9
:100338000435893E8200080020002308A90024080B
:10034800AA002508AB0003102A0D2B0DAC002C08C1
:10035800AF002608A9002708AA002808AB00031048
:100368002A0D2B0DAC002C08AE002F080319C82944
:100378002E082F020318CF292F03FF3A2E07A900B2
:1003880019302902031CCF292608A3002708A40036
:100398002808A50008002E08031908002F082E02B7
:1003A8000318DE292E03FF3A2F07A9001930290266
:1003B800031808000630A9002908AD00A51BAD17D1
:1003C800A81B2D17A417FF30A305FF30A405003084
:1003D800A505A717FF30A605FF30A7050030A8051B
:1003E8002E082F0203181A2A0130A635A70DA80DCA
:1003F800890BF9290130AE022E082F060319152A98
:100408000130AD022D0807390319152AF8290130E2
:10041800A536A40CA30C890B0C2A0130A9002908C5
:10042800AF072F082E0603193F2A0B2A2F082E0282
:1004380003183F2A0130A335A40DA50D890B1F2AE7
:100448000130AF022E082F0603193B2A0130AD02F6
:100458002D08073903193B2A1E2A0130A836A70C94
:10046800A60C890B322A0130A9002908AE072F08EB
:100478002E06031D312AAD1F512AFF30A306FF3077
:10048800A406FF30A5060130A30700300318013089
:10049800A407003003180130A5072D1F632AFF3079
:1004A800A606FF30A706FF30A8060130A6070030D1
:1004B80003180130A707003003180130A807AD0161
:1004C8002308A6072408A73D2508A83DA81F7E2ABB
:1004D800FF30A606FF30A706FF30A8060130A607A2
:1004E800003003180130A707003003180130A807AF
:1004F800AD01AD0A2608F0002708F1002808F2002F
:100508002F08A9002908F3002D08AA002A08F400DA
:1005180085319B2570082000A3007108A40072088B
:10052800A50008008631AA26823187312D2782311D
:1005380020006C08031908006A08031D08006B08EE
:10054800031D080085313525823103302000E40081
:100558000030E5006508F9006408F8008731512784
:10056800823178082000A0007908A1007A08A2004A
:100578008F31AE27823120002008A6002108A7006D
:100588002208A80021003E082000A30021003F08FF
:100598002000A400210040082000A5008131A021EE
:1005A800823120002308B3002408B4002508B500D0
:1005B8006508F9006408F800873151278231780806
:1005C8002000A0007908A1007A08A2008F31AE2788
:1005D800823120002008A6002108A7002208A800D0
:1005E8000030A3008030A4004030A5008131A02154
:1005F800823120002308B0002408B1002508B20089
:1006080084310524823120003008C3003108C40039
:100618003208C5000030C000A030C1004030C20020
:1006280083315123823120004008D0004108D10095
:100638004208D2008431AE24823120005108E10002
:100648005008E000E201E3016308803ADE00610837
:10065800803A5E02031D322B60086202031808000C
:1006680022008C1707302000DF007D30DE00DE0B13
:100678003B2BDF0B3B2B22008C1311302000DF00BB
:100688003A30DE00DE0B462BDF0B462B0000013034
:100698002000E2070030E33D282B20004008C60078
:1006A8004108C7004208C8000310470D480DC9009B
:1006B8004908CA004A08031D682B0030C0000030F2
:1006C800C1000030C20008004308C6004408C70043
:1006D8004508C8000310470D480DC9004908CF0058
:1006E8004F08031D7E2B0030C0000030C1000030D1
:1006F800C20008004F087B3EC6004608CA074008EB
:10070800C6004108C7004208C8001030C836C70CE8
:10071800C60C890B8A2B4608C9004908CF00430834
:10072800C6004408C7004508C8001030C836C70CC2
:10073800C60C890B9A2B4608C9004908CF06803099
:10074800C6004608CF05C117C417FF30C305FF30E0
:10075800C4050030C5050030CB000030CC000030A7
:10076800CD000730C6004608CE00401CC12B430808
:10077800CB074408CC3D4508CD3D0130C236C10CFD
:10078800C00C890BC22B0130C335C40DC50D890BB4
:10079800C82B0130CE02031DB92B0930C60046080C
:1007A800CE00401CDD2B4308CB074408CC3D450850
:1007B800CD3D0130C236C10CC00C890BDE2B013097
:1007C800CD36CC0CCB0C890BE42B0130CE02031DAB
:1007D800D52B4B08F0004C08F1004D08F2004A08F0
:1007E800C6004608F3004F08C7004708F4008531E3
:1007F8009B2570082000C0007108C1007208C20063
:10080800080020003308B6003408B7003508B800DF
:100818000310370D380DB9003908BE003E08031D16
:100828001C2C0030B0000030B1000030B2000800CD
:100838003008B6003108B7003208B8000310370D89
:10084800380DB9003908BF003F08031D322C0030AD
:10085800B0000030B1000030B20008000030BB002A
:100868000030BC000030BD0089303F07B6003608B4
:10087800BE023308B6003408B7003508B800103097
:10088800B836B70CB60C890B442C3608B9003908B1
:10089800BF003008B6003108B7003208B800103081
:1008A800B836B70CB60C890B542C3608B900390881
:1008B800BF068030B6003608BF05B417FF30B30551
:1008C800FF30B4050030B505B117FF30B005FF3073
:1008D800B1050030B2051830B6003608BA0001304C
:1008E800BB35BC0DBD0D890B742C32083502031DB8
:1008F800832C31083402031D832C30083302031C77
:100908008C2C3008B3023108B43B3208B53B3B1499
:100918000130B335B40DB50D890B8D2C0130BA02F9
:10092800031D732C3B08F0003C08F1003D08F20061
:100938003E08B6003608F3003F08B7003708F40051
:1009480085319B2570082000B0007108B10072083D
:10095800B200080020005008D4005108D500520801
:10096800D6000310550D560DD7005708DD005D0859
:10097800031DC72C0030D3000030D2000030D10056
:100988000030D00008005008D4005108D5005208A3
:10099800D6001730D636D50CD40C890BCE2C54087B
:1009A800D7005708D800D117FF30D005FF30D10540
:1009B8000030D2055008D9005108DA005208DB008F
:1009C800DC018E30DD02DD1F052D5D08803A8F3E8B
:1009D8000318F72C0030D3000030D2000030D100CB
:1009E8000030D00008000130DC36DB0CDA0CD90C02
:1009F800890BF82C0130D4005408DD0703191E2D8B
:100A0800F72C18305D02031C1B2D0030D30000307A
:100A1800D2000030D1000030D00008000130D935B4
:100A2800DA0DDB0DDC0D890B132D0130DD025D08BD
:100A3800031D122D580803192C2DD909DA09DB09D1
:100A4800DC09D90A0319DA0A0319DB0A0319DC0AD3
:100A58005C08D3005B08D2005A08D1005908D000BE
:100A6800080022000C1531302000C100B230C0004F
:100A7800C00B3C2DC10B3C2D000004308731B92739
:100A8800853171082000C6007008C50022000C11CD
:100A9800C0302000B0007F30B1004430B2004608BA
:100AA800F9004508F800873151278531780820007A
:100AB800B3007908B4007A08B5008431052485317B
:100AC80020003008C2003108C3003208C4004208C0
:100AD800B0004308B1004408B2007B30B3001C30BA
:100AE800B4004030B5008431052485312000300839
:100AF8002100BE00200031082100BF00200032087C
:100B08002100C0003E08F0003F08F1004008F20054
:100B1800E130F3004A30F4004030F50086313C26DD
:100B28008531031808002100AB01AB0A08007308DF
:100B38000319A32D720871047004031DB42D00302D
:100B4800F0000030F1000030F20008000130F5003C
:100B58007508F3070130F236F10CF00C890BAF2D54
:100B6800FE3072050319CD2DAA2D0130F500750848
:100B7800F3070130F007003003180130F1070030A7
:100B880003180130F2070130F236F10CF00C890B32
:100B9800C82DFF3072050319DA2DB92D0130F30283
:100BA8000130F035F10DF20D890BD52DF11BE02D3B
:100BB800023073020318D22D7318E82DFF30F005A8
:100BC8007F30F105FF30F2050310F30C7308F500D0
:100BD800F601F7011030F535F60DF70D890BEF2DFD
:100BE8007508F0047608F1047708F204740803190C
:100BF8000800F2170800F30120006C0803190C2EF6
:100C08006A08031D0C2E6B08031D0C2EF301F30A52
:100C180073088F31C1278531F40121002A0803198F
:100C28001B2E20006B0803191B2EF401F40AF50192
:100C380021002A080319262E20006A080319262EE7
:100C4800F501F50A7408F2007208F00075088F3192
:100C5800EF278531F60121002C08031D382E2B08BB
:100C6800031D382EF601F60A76088F31CB270800C7
:100C7800F21F522E7009F6007109F7007209F80088
:100C8800F60A0319F70A0319F80A00307607F00084
:100C98000030773DF1008030783DF200F51F682E76
:100CA8007309F6007409F7007509F800F60A0319C4
:100CB800F70A0319F80A00307607F3000030773D89
:100CC800F4008030783DF5008030F2068030F5067B
:100CD80075087202031D080074087102031D0800DC
:100CE80073087002080021002E088F31B72786315B
:100CF80021002E080319882E00308F31C127863134
:100D080000308F31CB2708008731F32786318631B1
:100D1800AA26863187312D278631853135258631BA
:100D28008531FF2586312000C801C80A21002B081B
:100D3800031DA32E2C08031DA32E2000C80120008C
:100D48004808C70047082100AE000800031020002B
:100D58000D1803140030093DF000F1017008F2008D
:100D68007108F30072087304031DBC2EEC01EC0A31
:100D780003108D1803140030093DF000F1017008CC
:100D8800F4007108F50074087504031DCE2E2100C7
:100D9800AA01AA0A20006C08031DD42E0130D52E02
:100DA8000030F00070082100AC000800270015187A
:100DB800DF2E141CE62E161CE62E8F318E27863168
:100DC800270016109518EA2E941CF12E961CF12E69
:100DD8008F3185278631270096109519F52E941D99
:100DE800FC2E961DFC2E8F31822786312700961106
:100DF800151A002F141E0800161E08008F318827A8
:100E080027001612080022008C01313021008C00C6
:100E1800103023008C0024008C01243022008D0027
:100E2800FF3021008D00C03023008D001B302400CE
:100E38008D002100951322009D019E0127001514A5
:100E480014149514941495159415151614168B15D9
:100E58000800031020008D1903140030093DF0002C
:100E6800F1017008F2007108F30003100D1A031461
:100E78000030093DF000F1017008F4007108F50038
:100E880072087304031D4A2FEA01EA0A74087504FC
:100E9800031D0800EB01EB0A0800FD01F91F5B2F99
:100EA800F809F909F80A0319F90AFD01FD0A780891
:100EB800F0007908F100F2018E30FB007B08F300A6
:100EC8007D08FC007C08F40085319B257008F8003B
:100ED8007108F9007208FA000800BA302100C10050
:100EE8004108A100BA30C1004108A000A214221094
:100EF800A40124009C0128309D009F0103309A0022
:100F08002000141021001414080080316428803156
:100F180094288031EA288131142981318729813147
:100F28004B298131602981318729813167298131B4
:100F38008B2980319C288031BF28F10024001E15A0
:100F480020006808023E8600870101080319B72FB0
:100F58007108F0006808023E8600870101088600D3
:100F6800870170088100E7010800F3007308F200A8
:100F7800F20DF20D21001D087206833972069D00DC
:100F88001D1421009D149D18C72F1C08F1001B0873
:100F9800F00008000530F00070082000E907013073
:100FA8002100A902031DDE2F0430F0007008200084
:100FB800E70008002000E701E70A08008F31E02772
:100FC80087318B170B17A3302100C3005530C2009F
:100FD800C20BEC2FC30BEC2F63000000E72F20009F
:100FE800EC012100AA01AC01AD012000EA01EB01EE
:080FF8002100AB010800080014
:101F04002100AE0108002100AE0108002100AE014D
:101F1400080000348034BF342100AE01823196229F
:101F240008003830210099009A01980108006400E3
:101F340080010131890B9A2F00340B1120006D08A8
:101F44009500863177260800013021009D008030FD
:101F54009E009B019C01080020002208210420040B
:101F6400031908008030A2060800F0007008031965
:101F7400BE2F22008C14080022008C100800F000F0
:101F840070080319C82F22000C17080022000C1334
:101F94000800F00070080319D22F22008C110800E9
:101FA40022008C15080021001508C0391538950049
:101FB40020009501ED010B118B1608008F3193273A
:101FC4008F31873107278F318F31D5278F318F316B
:101FD400A6278F31873171270800F1007008031993
:101FE400F72F803022008C06080071080319FD2F9A
:0C1FF40022008C17080022008C1308004B
:020000040001F9
:04000E00E4FFFFDF2D
:00000001FF
